:020000040000fa
:10000000f03f0020610500006d0800006f0800004f
:1000100000000000000000000000000000000000e0
:100020000000000000000000000000007308000055
:10003000000000000000000073080000210700001d
:1000400073080000730800007308000073080000c4
:1000500073080000730800007308000073080000b4
:1000600073080000730800007308000073080000a4
:100070007308000073080000730800007308000094
:1000800073080000730800004907000073080000af
:10009000730800000000000000000000f9060000e6
:1000a0007308000073080000730800007308000064
:0800b0000000000073080000cd
:020000040000fa
:1000b800f8b5c046f8bc08bc9e467047410500002c
:1000c800f8b5c046f8bc08bc9e4670471905000044
:020000040000fa
:1000d800500000201c0000000000000098000020d4
:1000e80008000000000000008c0000200c00000048
:1000f80000000000a0000020080000000000000030
:10010800b40000200100000000000000b000002042
:100118000200000000000000b20000200200000001
:10012800000000006c00002010000000000000002b
:100138007c0000201000000000000000b500002036
:10014800010000000100000001000000a8000020dc
:100158000400000000000000000000205000000023
:1001680000000000ac0000200400000000000000b7
:100178000000000000000000444444444444444457
:020000040000fa
:100188001d4b00229a619a8c80218a439a841a0016
:100198001023d1680b42fcd0184b1b689b0e3f2bd9
:1001a80027d09b02802292001343134a93621023a4
:1001b800d1680b42fcd0104b02229a841a001023fb
:1001c800d1680b42fcd00e4b0e4a5a601a00537885
:1001d8005bb2002bfbdb0a4b0b4a5a800b4a5a8056
:1001e8000b4a5a800b4b0c4a1a62034b00221a62c4
:1001f8007047203bd5e7c0460008004024608000d7
:10020800000c004000070100154000001b400000e2
:0c0218001e400000000400400808010027
:020000040000fa
:10022400002934d00123002210b488422cd30124a5
:100234002407a14204d2814202d209011b01f8e73a
:10024400e400a14204d2814202d249005b00f8e7f3
:10025400884201d3401a1a434c08a04202d3001b1f
:100264005c0822438c08a04202d3001b9c08224352
:10027400cc08a04202d3001bdc082243002803d090
:100284001b0901d00909e3e7101c10bc704701b534
:10029400002000f0e7fa02bd0029f8d003b5fff70b
:0c02a400c1ff0ebc4243891a1847c04637
:020000040000fa
:1002b0001a4b01221a701a00537e5bb2002bfbdb33
:1002c000174b1a68174b1b68db0e072111404901b9
:1002d0000b435201e021c9000a4013430f4a138522
:1002e0000323d370013b53700f4b1361537e5bb2fa
:1002f000002bfbdb094b0d4a9a801a00537e5bb240
:10030000002bfbdb054b0f221a760e3ada751a002a
:10031000537e5bb2002bfbdb7047c04600400042bf
:1003200024608000206080000018000f0407000097
:020000040000fa
:1003300070b5194b1b78002b16d0184c258800f08f
:100340006bfa6d00164be8522288013207231340e6
:100350002380c0214901002000f00afa0e4a1378d8
:1003600001214b40137070bd0e4c258800f054faeb
:100370006d000d4be8522288013207231340238081
:10038000c0214901012000f0f3f9034a137801214b
:100390004b401370e7e7c046b5000020b0000020d6
:0c03a0006c000020b20000207c00002057
:020000040000fa
:1003ac000021f0b5174b184a934208d30027174a7f
:1003bc0013685168002b05d1002903d1f0bd1970c9
:1003cc000133f1e7100095680c305c18002d16d045
:1003dc000b25ed1a5219a3420ad10b00032213402c
:1003ec005a1e934189085918890040180200dfe70a
:1003fc005d1cae5c1e702b00ede71f700133a34239
:10040c00fbd1f3e70000002000000020d800000022
:020000040000fa
:10041c0000230e4a10b513600d4a13600d4a136089
:10042c000d4a13600d4a13600d4a53621361013378
:10043c00936000f019fa00f017fa0a4c0a4b9c4230
:10044c0000d310bd08cc9847f8e7c046ac0000209c
:10045c000c000020080000200000002004000020f8
:0c046c0010000020c4000000c8000000c8
:020000040000fa
:10047800124b134a1a6003221a61402100225a546f
:10048800412019543f3901301954013019540b30a7
:100498001a5401301a540130195401301954513189
:1004a8005a5422395a5401314038585406315a5452
:1004b80001311130585401315a54704700440041f9
:0404c80003c0040069
:020000040000fa
:1004cc0010b582b004000f4b00209c4201d902b041
:1004dc0010bd6b46d91d00230b700b4800f0aef914
:1004ec002004001b0749fff797fe80b200f084f947
:1004fc0000f0e6f86b4607331878c0b20028fbd042
:0c050c00e5e7c046760500005508000039
:020000040000fa
:1005180010b5064c2378002b07d1054b002b02d0d1
:10052800044800e000bf0123237010bd50000020e4
:100538000000000000000000044b10b5002b03d0a1
:100548000349044800e000bf10bdc0460000000099
:08055800540000200000000027
:020000040000fa
:1005600010b50a4b98470a4b984700f079f9094ba8
:10057000ff229343084a9360084b9847084b9847db
:10058000084b984700f032f8fee7c04671080000bb
:10059000710800000000000000ed00e01d040000f4
:0805a000710800007108000061
:020000040000fa
:1005a8000e4b01221a801a00d37b5bb2002bfbdbb7
:1005b8000a4bec22d2001a8004225a71063a1a8396
:1005c8003d329a73064a0021116001225a731a00bb
:1005d800d37b5bb2002bfbdb7047c046002c00428c
:0405e800a00000204f
:020000040000fa
:1005ec0070b5002000f03ef809490a4800f020f9e7
:1005fc0009490a4800f010f900f0e6f8fa26b600ae
:10060c00074d02243000fff75bffec61fae7c046b0
:10061c00b4000020b90700006c000020310300007a
:04062c000044004145
:020000040000fa
:10063000bff35f8f62b60c4bc42080001a580b4981
:100640001140c02212040a431a508022d2021a60ba
:1006500004301a581202120ac02109060a431a501d
:10066000802212041a60704700e100e0ffff00ffe3
:020000040000fa
:1006700010b50a4b06225a60fff7fefefff784fd15
:1006800000f0d6f800f00cf800f084f8fff710fe48
:10069000fff78afffff7ccff10bdc04600400041c6
:020000040000fa
:1006a000084b00225a601a00d369002bfcd1054b7d
:1006b00001221a73044a1a601a00d369002bfcd174
:0c06c0007047c046000c00420e003000e5
:020000040000fa
:1006cc00094a138802218b431380d37b5bb2002b26
:1006dc00fbdb054a138802210b431380d37b5bb2ef
:0c06ec00002bfbdb7047c046002c0042d6
:020000040000fa
:1006f80010b5074b187ec0b201221a76054b1b684d
:10070800002b03d0034b59681b68984710bdc0469f
:0807180000400042980000209f
:020000040000fa
:1007200010b5074b5868074a12689a6801329a60f8
:100730001b68002b02d0024b1b68984710bdc046b7
:080740008c00002010e000e035
:020000040000fa
:1007480010b5074b987bc0b23b229a73054b1b68c8
:10075800002b03d0034b59681b68984710bdc0464f
:08076800002c0042a00000205b
:020000040000fa
:1007700010b5064a1369064c23400b43034313612b
:10078000537e5bb2002bfbdb10bdc0460040004235
:04079000e0e0ffffa7
:020000040000fa
:10079400054a0023136093600449516006211160e7
:1007a400034a93601360704710e000e0ff1ab7003b
:0407b4008c00002095
:020000040000fa
:1007b8000378042b02d0013303707047024b0222e6
:0c07c800da6100230370f8e700440041f0
:020000040000fa
:1007d400044a137802210b431370537e5bb2002b3f
:0807e400fbdb704700400042fe
:020000040000fa
:1007ec00044a138802218b431380d37b5bb2002b0a
:0807fc00fbdb7047002c0042fa
:020000040000fa
:10080400034b18831a00d37b5bb2002bfbdb7047ce
:04081400002c004272
:020000040000fa
:0c081800014b588b80b27047004000423a
:020000040000fa
:0c082400014b18605960704798000020dc
:020000040000fa
:0c083000014b82225a60704700400041da
:020000040000fa
:0c083c00014b1860596070478c000020d0
:020000040000fa
:0c084800014b186059607047a0000020b0
:020000040000fa
:0c08540010b501230b70fff7c7ff10bdab
:020000040000fa
:0808600010b5fff7a3fd10bd68
:020000040000fa
:040868007047c046cf
:020000040000fa
:02086c00fee7a5
:020000040000fa
:02086e00fee7a3
:020000040000fa
:020870007047cf
:020000040000fa
:02087200fee79f
:020000040000fa
:020874007047cb
:020000040000fa
:0200000400807a
:0440000077c700d8a6
:020000040000fa
:0200000400807a
:044004005c00ffff5e
:00000001FF
